:020000040800F2
:1000000058040020DD01000801100008770F0008E7
:10001000FD0F0008E902000893130008000000002B
:1000200000000000000000000000000007100008B1
:10003000ED0200080000000005100008091000088B
:10004000F7010008F7010008F7010008F7010008B0
:10005000F7010008F7010008F7010008F7010008A0
:10006000F7010008F7010008F7010008F701000890
:10007000F7010008F7010008F7010008F701000880
:10008000F7010008F7010008F7010008F701000870
:10009000F7010008F7010008F7010008F701000860
:1000A000F7010008F7010008F7010008F701000850
:1000B000F7010008F7010008F7010008F701000840
:1000C000F7010008F7010008F7010008F701000830
:1000D000F7010008F7010008F7010008F701000820
:1000E000F7010008F7010008F7010008F701000810
:1000F000F7010008F7010008F7010008F701000800
:1001000000000000F7010008F7010008F7010008EF
:100110000000000000000000F7010008F7010008DF
:10012000F7010008F7010008F7010008F7010008CF
:10013000F7010008F7010008F7010008F7010008BF
:10014000F7010008F7010008F7010008F7010008AF
:10015000F7010008F7010008F7010008F70100089F
:10016000F7010008F701000800000000000000008F
:10017000000000000000000000000000000000007F
:10018000F7010008F701000800000000000000006F
:10019000F7010008F701000800000000000000005F
:1001A000000000000000000000000000000000004F
:1001B000F70100080000000000000000F70100083F
:1001C000F7010008DFF810D000F07CF80048004785
:1001D000F1130008AFF30080580400200648804760
:1001E00006480047FEE7FEE7FEE7FEE7FEE7FEE71C
:1001F000FEE7FEE7FEE7FEE7C1100008C5010008C4
:100200002DE9F05F0546002092469B46884606464B
:10021000814640241BE0284641464746224600F0DE
:1002200041F853465A46C01A914110D31146184618
:10023000224600F028F82D1A67EB01084F462246A7
:100240000120002100F01FF817EB00094E41201E8D
:10025000A4F10104DFDC484631462A464346BDE8A6
:10026000F09FD2B201E000F8012B491EFBD270478B
:100270000022F6E710B513460A4604461946FFF772
:10028000F0FF204610BD202A04DB203A00FA02F1DC
:10029000002070479140C2F1200320FA03F3194374
:1002A00090407047202A04DB203A21FA02F0002116
:1002B000704721FA02F3D040C2F120029140084376
:1002C00019467047064C074D06E0E06840F0010310
:1002D00094E8070098471034AC42F6D3FFF776FF56
:1002E000481400086814000800BFFEE7704772B6A3
:1002F00000BFFEE7F8B503460A46002500240020AB
:100300000021C1E0012606FA01F5166806EA050497
:10031000AC4274D1167906F00306012E04D016798A
:1003200006F00306022E13D198684F000326BE4044
:10033000B0434F00D668BE403043986058680126ED
:100340008E40B0431679C6F300168E403043586095
:10035000167906F00306032E09D0D8684F0003264D
:10036000BE40B0434F009668BE403043D860167917
:1003700006F00306022E13D1CF0803F1200656F82B
:1003800027004E07F70E0F26BE40B0434F07FF0E63
:100390001669BE403043CF0803F1200646F8270017
:1003A00018684F000326BE40B043167906F00306D6
:1003B0004F00BE4030431860566806F44036002EA9
:1003C00061D000BF00260096314E366846F4804664
:1003D0002F4F3E603E46366806F48046009600BFCA
:1003E00000BF2C4E8F0856F827008E07370F0F26B8
:1003F000BE40B043284EB34202D1002610E042E096
:10040000264EB34201D101260AE0254EB34201D166
:10041000022605E0234EB34201D1032600E0072661
:100420008F073F0FBE4030431A4E8F0846F8270013
:100430001D4E3068A043566806F4803606B120434E
:10044000194E3060361D3068A043566806F40036F9
:1004500006B12043144E361D3060361D3068A0436F
:10046000566806F4801606B120430F4E08363060F9
:10047000361D3068A043566806F4001606B12043C6
:10048000094E0C363060491C1029FFF43BAFF8BD13
:100490004438024008380140000002400004024095
:1004A00000080240000C0240003C01400148006886
:1004B00070470000000000200348006803490978E5
:1004C000084401490860704700000020080000202F
:1004D00010B50D48006840F400700B4908600846EC
:1004E000006840F4806008600846006840F480704E
:1004F0000860032000F092F8002000F007F800F0F8
:100500002BF8002010BD0000003C024070B50446EE
:100510000E4800784FF47A71B1FBF0F00C4909688D
:10052000B1FBF0F5284600F025FC08B1012070BDB4
:10053000102C07D200222146501E00F031F8054849
:10054000046001E00120F2E70020F0E7080000204D
:100550000C0000200400002008B500BF002000901F
:100560000E48006840F480400C4908600846006866
:1005700000F48040009000BF00BF00BF002000904A
:10058000081F006840F08050091F08600846006896
:1005900000F08050009000BF00BF08BD443802400A
:1005A0002DE9F05F80460D461646002700F0F4FE68
:1005B000074639462A46334601F00700C0F1070ACC
:1005C000BAF1040F02D94FF0040A01E0C0F1070AA2
:1005D000D14600F1040ABAF1070F02D24FF0000A27
:1005E00001E0A0F1030AD4464FF0010A0AFA09FA21
:1005F000AAF1010A0AEA020A0AFA0CFA4FF0010B00
:100600000BFA0CFBABF1010B0BEA030B4AEA0B04F0
:100610002146404600F0C8FEBDE8F09F00BF00F054
:100620000702064B19684FF6FF031940044B0B43B2
:1006300043EA0221014B196000BF70470CED00E056
:100640000000FA0570B504460D460CB9012070BDD6
:100650005848006800F00700A84209D255490D70BB
:100660000846006800F00700A84201D00120EEE72C
:10067000207800F0020002281DD1207800F004004C
:10068000042805D14C48006840F4E0504A4908600D
:10069000207800F00800082805D14748006840F499
:1006A0006040454908604448006820F0F000A168B7
:1006B000084341490860207800F00100A8B3606851
:1006C000012807D13C4808380068C0F34040B8B959
:1006D0000120BCE76068022802D06068032807D1C7
:1006E000354808380068C0F3406048B90120AEE7DB
:1006F000314808380068C0F3400008B90120A6E777
:100700002D48006820F00300616808432A4908600A
:10071000FFF7CCFE064609E0FFF7C8FE801B41F25A
:100720008831884202D9032091E707E02248006817
:1007300000F00C006168B0EB810FEDD11D4800683E
:1007400000F00700A84209D91A490D700846006850
:1007500000F00700A84201D0012078E7207800F0DF
:100760000400042807D11448006820F4E050E16830
:10077000084311490860207800F00800082808D1D3
:100780000D48006820F46040216940EAC1000A4930
:10079000086000F03FF808490968C1F30311074AEF
:1007A000515CC8400649086006480068FFF7AEFE85
:1007B00000204CE7003C024008380240301400089A
:1007C0000C00002004000020014800687047000071
:1007D0000C00002000B5FFF7F7FF04490968C1F3DA
:1007E0008221034A515CC84000BD00000838024025
:1007F0004014000800B5FFF7E7FF04490968C1F39A
:100800004231034A515CC84000BD00000838024034
:10081000401400082DE9F047002400250026A146D9
:100820002548006800F00C0020B1042805D00828F5
:100830003AD105E0DFF8849039E0DFF8849036E0C3
:100840001D48001F006800F03F041B48001F00689F
:1008500000F4800078B11A481749091F0968C1F3EC
:100860008811A0FB01700146224600233846FFF79D
:10087000C7FC05460EE011480F49091F0968C1F37E
:100880008811A0FB01700146224600233846FFF77D
:10089000B7FC05460848001F0068C0F30140401C33
:1008A0004600B5FBF6F902E0DFF8109000BF00BF8C
:1008B0004846BDE8F0870000083802400024F400F4
:1008C000001BB700F8B504460CB90120F8BD20782C
:1008D00000F00100002874D0F748006800F00C0018
:1008E00004280DD0F448006800F00C00082813D14B
:1008F000F148001F006800F48000B0F5800F0BD1B4
:10090000ED4808380068C0F34040002859D06068BE
:10091000002856D10120D9E700BF6068B0F5803FBC
:1009200008D1E5480838006840F48030E2490839C9
:1009300008601EE06068B0F5A02F0DD1DE480838D1
:10094000006840F48020DC490839086008460068E7
:1009500040F4803008600CE0D7480838006820F484
:100960008030D549083908600846006820F48020A6
:10097000086000BF606890B1FFF798FD054606E08B
:10098000FFF794FD401B642801D903209EE7CA4865
:1009900008380068C0F340400028F1D011E0FFF7AC
:1009A00085FD054606E0FFF781FD401B642801D95F
:1009B00003208BE7C04808380068C0F34040002897
:1009C000F1D1207800F0020002285FD1BA48006817
:1009D00000F00C0058B1B848006800F00C0008287E
:1009E0001CD1B548001F006800F48000B0B9B248BF
:1009F00008380068C0F3400020B1E068012801D049
:100A0000012063E7AC480838006820F0F80021694D
:100A100040EAC100A8490839086037E0E06800B33F
:100A20000120A6490860FFF741FD054606E0FFF7F3
:100A30003DFD401B022801D9032047E79E480838A6
:100A40000068C0F340000028F1D09B4808380068D7
:100A500020F0F800216940EAC10097490839086090
:100A600014E0002095490860FFF720FD054606E0E8
:100A7000FFF71CFD401B022801D9032026E78E4802
:100A800008380068C0F340000028F1D1207800F059
:100A9000080008282CD16069A8B1012088490860A5
:100AA000FFF704FD054606E0FFF700FD401B0228A6
:100AB00001D903200AE780486C300068C0F3400089
:100AC0000028F1D014E000207D490860FFF7EEFC1B
:100AD000054606E0FFF7EAFC401B022801D9032087
:100AE000F4E675486C300068C0F340000028F1D18E
:100AF000207800F00400042870D100276E483830B8
:100B0000006800F0805090B900BF002000906A4853
:100B10003830006840F08050674938310860084636
:100B2000006800F08050009000BF00BF01276548BA
:100B3000006800F48070B0B96248006840F48070CA
:100B400060490860FFF7B2FC054606E0FFF7AEFC1F
:100B5000401B022801D90320B8E65A48006800F477
:100B600080700028F2D000BFA068012808D1524848
:100B70006830006840F001004F49683108601DE0AE
:100B8000A06805280DD14C486830006840F004008A
:100B90004949683108600846006840F00100086073
:100BA0000CE045486830006820F001004249683197
:100BB00008600846006820F00400086000BFA068D4
:100BC000A8B1FFF773FC054609E0FFF76FFC401B77
:100BD00041F28831884202D9032077E626E0364880
:100BE00068300068C0F340000028EED013E0FFF743
:100BF0005DFC054608E0FFF759FC401B41F28831D7
:100C0000884201D9032061E62B4868300068C0F3B0
:100C100040000028EFD1012F07D127483830006865
:100C200020F0805024493831086000BFA0690028B6
:100C300050D02148006800F00C00082860D0A0695E
:100C4000022848D100201D490866FFF72FFC054601
:100C500006E0FFF72BFC401B022801D9032035E6F4
:100C6000154808380068C0F340600028F1D1D4E985
:100C700007010843616A40EA81110122A06AC2EBC0
:100C8000500041EA00412C20005D41EA0061302023
:100C9000005D41EA00700849091F0860012007490A
:100CA0000866FFF703FC05460EE0FFF7FFFB401B5D
:100CB000022809D9032009E608380240000047420B
:100CC000800E47420070004028480068C0F3406032
:100CD0000028EAD048E0002025490866FFF7E6FB37
:100CE000054606E0FFF7E2FB401B022801D903207E
:100CF000ECE51E480068C0F340600028F2D133E004
:100D0000A069012800D1E1E51848001D0668A06926
:100D1000012827D006F48001E069814222D106F043
:100D20003F01206A81421DD147F6C0703040616AA0
:100D3000B0EB811F16D106F440310122A06AC2EB4C
:100D40005000B1EB004F0DD106F070612C20005D1A
:100D5000B1EB006F06D106F0E0413020005DB1EB51
:100D6000007F01D00120B1E50020AFE5003802404E
:100D70000000474270B504462546681EB0F1807FEA
:100D800001D301200FE0681E4FF0E02148610F21E0
:100D90004FF0FF3000F008FB00204FF0E0218861A9
:100DA00007200861002070BD10B504460CB9012071
:100DB00010BDA06900B100E000BF94F83D0028B963
:100DC000002084F83C00204600F028F8242084F815
:100DD0003D002068C06820F400502168C8602046AB
:100DE00000F078F92068006920F4904021680861DB
:100DF0002068406920F02A00216848612068C068A6
:100E000040F400502168C86000202064202084F84D
:100E10003D0084F83E000020CAE7000010B586B00F
:100E20000446142101A8FFF723FA1B4920688842D1
:100E30002FD100BF002000901848006840F4003017
:100E4000164908600846006800F40030009000BFB2
:100E500000BF00BF0020009010481038006840F02C
:100E600001000E49103908600846006800F00100D2
:100E7000009000BF00BF0C200190022002900020D3
:100E80000390032004900720059001A90448FFF770
:100E900031FA06B010BD0000004400404038024066
:100EA000000002402DE9F84F04460E4617469946C9
:100EB0004FF0000A94F83D0020285AD106B117B926
:100EC0000120BDE8F88F00BF94F83C00012801D153
:100ED0000220F6E7012084F83C0000BF00202064D7
:100EE000212084F83D00FFF7E1FA8246A784E784D9
:100EF000A068B0F5805F04D1206910B90025B04624
:100F000002E035464FF0000800BF002084F83C00A6
:100F100000BF1BE05346002280212046CDF8009000
:100F200000F0EEF908B10320CBE745B9B8F80000AE
:100F3000C0F308002168486008F1020803E028783F
:100F4000216848606D1CE08C401EE084E08C002825
:100F5000E0D15346002240212046CDF8009000F019
:100F6000CFF908B10320ACE7202084F83D00002031
:100F7000A7E70220A5E700BFFEE7000008B500BF15
:100F8000002000900E48006840F080000C49086086
:100F90000846006800F08000009000BF00BF00BF5E
:100FA000002000900846006840F0010008600846F4
:100FB000006800F00100009000BF00BF08BD000005
:100FC0003038024010B50B480B4908604FF4E1304F
:100FD0004860002108488160C16001610C214161C5
:100FE00000218161C161FFF7DFFE08B1FFF77FF9E2
:100FF00010BD0000004400401000002000BFFEE7CC
:1010000000BFFEE77047704710B5FFF755FA10BDF7
:1010100000B593B0342106A8FFF72AF9142101A8DE
:10102000FFF726F900BF002000902348006840F039
:101030008050214908600846006800F08050009008
:1010400000BF00BF00BF002000901C48006840F4B3
:1010500040401A4908600846006800F4404000908B
:1010600000BF00BF012006900004079002200C90F2
:1010700041050D9106210E9164210F9102211091DD
:101080001191129106A8FFF71DFC08B1FFF72FF987
:101090000F20019002200290002003904FF4805016
:1010A000049000200590032101A8FFF7CBFA08B1B6
:1010B000FFF71DF913B000BD40380240007000403A
:1010C0000348006840F47000014908607047000060
:1010D00088ED00E02DE9F84F04462068006920F40F
:1010E0004050E1680843216808612169A06808430D
:1010F00061690843E169084300902068C06849F2CB
:101100000C618843009908432168C86020684069E1
:1011100020F44070A169084321684861764920683D
:10112000884203D075492068884203D1FFF762FBEB
:10113000814602E0FFF74EFB8146E069B0F5004FC3
:101140006CD102206168A0FB015003461920A9FB65
:10115000007001462A463846FFF752F86421B0FB7A
:10116000F1F04FEA001A02206168A0FB01510B4622
:101170001920A9FB00712A463846FFF741F883463B
:1011800002206168A0FB015003461920A9FB0071F1
:101190002A463846FFF734F86421B0FBF1F000EB43
:1011A000C00101EB0010ABEB8000322101EBC0006D
:1011B0006421B0FBF1F000F0F8000AEB400A0220D5
:1011C0006168A0FB015003461920A9FB007001468D
:1011D0002A463846FFF714F8834602206168A0FBD0
:1011E000015003461920A9FB00712A463846FFF733
:1011F00007F86421B0FBF1F000EBC00101EB001037
:10120000ABEB8000322101EBC0006421B0FBF1F0B8
:1012100000F007005044216888606AE0042061689B
:10122000A0FB015003461920A9FB007001462A4685
:101230003846FEF7E5FF824604206168A0FB0150B6
:1012400003461920A9FB007001462A463846FEF7DE
:10125000D7FF6421B0FBF1F000EBC00101EB0010FF
:10126000AAEB8000322101EB00106421B0FBF1F009
:1012700000F0F00A04206168A0FB01700346192009
:10128000A9FB00513A462846FEF7BAFF6421B0FB9D
:10129000F1F00AEB001A04206168A0FB01510B4633
:1012A0001920A9FB00712A463846FEF7A9FF83469C
:1012B00004206168A0FB015003461920A9FB0070BF
:1012C00001462A463846FEF79BFF6421B0FBF1F049
:1012D00000EBC00101EB0010ABEB8000322101EB11
:1012E00000106421B0FBF1F000F00F0050442168C1
:1012F0008860BDE8F88F0000001001400014014034
:101300002DE9F04104460D4617469846069E34E006
:10131000701C88B32EB1FFF7C9F8A0EB0800B042EB
:101320002BD900BF00BF21680C3151E8001F21F408
:10133000D07021680C3141E80002002AF3D100BFCF
:1013400000BF00BF2168143151E8001F21F00100E7
:101350002168143141E80002002AF3D100BF2020A7
:1013600084F83D0084F83E0000BF002084F83C0073
:1013700000BF0320BDE8F081FFE720680068284037
:10138000A84201D1012000E00020B842C0D00020D6
:10139000F0E700BFFEE7000002480068C0F302204B
:1013A000704700000CED00E010B5002804DB0A07D0
:1013B000130E054A135406E00A07140E034A00F000
:1013C0000F031B1FD45410BD00E400E018ED00E033
:1013D00002E008C8121F08C1002AFAD170477047FE
:1013E000002001E001C1121F002AFBD1704700005C
:1013F0001FB50AA30FCB8DE80F00FFF769F8FFF7C1
:1014000007FEFFF7BBFDFFF7DDFD4FF47A730E22F9
:1014100069460648FFF746FD00BFFEE748656C6C6D
:101420006F20576F726C640D0A00000010000020DE
:101430000000000000000000010203040607080984
:1014400000000000010203046814000800000020EE
:1014500010000000D01300087814000810000020CD
:1014600048040000E0130008000000001000000025
:08147000010000000024F4005B
:04000005080001C529
:00000001FF
