:020000040800F2
:10000000B8050020DD010008E91A0008B119000850
:10001000E51A0008E9020008DD20000800000000E1
:10002000000000000000000000000000EF1A0008BF
:100030002704000800000000ED1A0008F11A00086B
:10004000F7010008F7010008F7010008F7010008B0
:10005000F7010008F7010008F7010008F7010008A0
:10006000F7010008F7010008F7010008F701000890
:10007000F7010008F7010008F7010008F701000880
:10008000F7010008ED020008F7010008F701000879
:10009000F7010008F7010008F7010008F701000860
:1000A000F7010008F7010008F7010008F701000850
:1000B000F7010008F7010008F7010008F701000840
:1000C000F7010008F7010008F7010008F701000830
:1000D000F7010008BD200008CD200008F701000846
:1000E000F7010008F7010008F7010008F701000810
:1000F000F7010008F7010008F7010008F701000800
:1001000000000000F7010008F7010008F7010008EF
:100110000000000000000000F7010008F7010008DF
:10012000F7010008F7010008FD020008F7010008C8
:10013000F7010008F7010008F7010008F7010008BF
:10014000F7010008F7010008F7010008F7010008AF
:10015000F7010008F70100080D030008F701000887
:10016000F7010008F701000800000000000000008F
:10017000000000000000000000000000000000007F
:10018000F7010008F701000800000000000000006F
:10019000F7010008F701000800000000000000005F
:1001A000000000000000000000000000000000004F
:1001B000F70100080000000000000000F70100083F
:1001C000F7010008DFF810D000F07CF80048004785
:1001D00039210008AFF30080B805002006488047A9
:1001E00006480047FEE7FEE7FEE7FEE7FEE7FEE71C
:1001F000FEE7FEE7FEE7FEE7A91B0008C5010008D1
:100200002DE9F05F0546002092469B46884606464B
:10021000814640241BE0284641464746224600F0DE
:1002200041F853465A46C01A914110D31146184618
:10023000224600F028F82D1A67EB01084F462246A7
:100240000120002100F01FF817EB00094E41201E8D
:10025000A4F10104DFDC484631462A464346BDE8A6
:10026000F09FD2B201E000F8012B491EFBD270478B
:100270000022F6E710B513460A4604461946FFF772
:10028000F0FF204610BD202A04DB203A00FA02F1DC
:10029000002070479140C2F1200320FA03F3194374
:1002A00090407047202A04DB203A21FA02F0002116
:1002B000704721FA02F3D040C2F120029140084376
:1002C00019467047064C074D06E0E06840F0010310
:1002D00094E8070098471034AC42F6D3FFF776FF56
:1002E000C8210008E821000800BFFEE710B5024859
:1002F00000F008F910BD00005801002010B50248B8
:1003000000F000F910BD00009800002010B5024870
:1003100000F0F8F810BD0000F80000200146087851
:1003200010381823B0FBF3F20848805CC865032A34
:1003300005D908686FF30900001D886503E00868A7
:100340006FF309008865886D70470000A8210008D8
:10035000014600208A6A8B69CBB932B1012A0DD0DF
:10036000022A03D0032A10D10EE000BFCB6A03F0AB
:100370008073B3F1807F00D1012007E0CB6AB3F135
:10038000C07F00D1012001E000E000BF34E08B69B4
:10039000B3F5005F1AD132B1012A07D0022A03D087
:1003A000032A11D10AE000BF01200EE0CB6A03F05E
:1003B0008073B3F1807F00D1012006E0CB6AB3F1F6
:1003C000C07F00D1012000E000BF15E032B1012A5A
:1003D00005D0022A04D0032A0CD103E000BF00BFDD
:1003E000012008E0CB6A03F08073B3F1807F00D175
:1003F000012000E000BF00BF704730B504682468EA
:1004000024F4802405682C60046863608468402CB0
:1004100004D10468A2600468E16003E00468A1609C
:100420000468E26030BD704772B600BFFEE770B589
:100430000446A56D00F036FB064694F83500022808
:1004400008D08020606500BF002084F8340000BF21
:10045000012070BD2068006820F016002168086047
:100460002068406920F0800021684861206C08B94C
:10047000A06C28B12068006820F00800216808609E
:100480002068006820F001002168086010E000F09A
:1004900009FB801B05280BD920206065032084F808
:1004A000350000BF002084F8340000BF0320D0E7EF
:1004B0002068006800F001000028E8D194F85C1082
:1004C0003F208840A860012084F8350000BF00204C
:1004D00084F8340000BF00BFBBE7014691F8350047
:1004E000022803D08020486501207047052081F84C
:1004F00035000868006820F001000A6810600020DC
:10050000F3E70000F8B50446002000908C4800682E
:100510004FF41651B0FBF1F7A56D2E6894F85C10FE
:1005200008208840304098B12068006800F004003E
:1005300070B12068006820F004002168086094F819
:100540005C1008208840A860606D40F00100606584
:1005500094F85C1001208840304068B12068406900
:1005600000F0800040B194F85C1001208840A86041
:10057000606D40F00200606594F85C1004208840D3
:10058000304068B12068006800F0020040B194F883
:100590005C1004208840A860606D40F00400606535
:1005A00094F85C1010208840304078B320680068D0
:1005B00000F0080050B394F85C1010208840A86048
:1005C0002068006800F4802080B12068006800F492
:1005D000002028B9206CC8B12046216C884715E05E
:1005E000A06C98B12046A16C88470FE02068006895
:1005F00000F4807028B92068006820F008002168A5
:100600000860206C10B12046216C884794F85C107B
:10061000202088403040002865D02068006800F025
:10062000100000285FD094F85C1020208840A8605B
:1006300094F83500052828D12068006820F01600BD
:10064000216808602068406920F0800021684861C6
:10065000206C08B9A06C28B12068006820F0080060
:100660002168086094F85C103F208840A860012051
:1006700084F8350000BF002084F8340000BF206DEE
:1006800010B12046216D8847F8BD2068006800F44D
:10069000802080B12068006800F4002028B9606CD8
:1006A00010B12046616C88471DE0E06BD8B1204650
:1006B000E16B884717E02068006800F4807068B933
:1006C0002068006820F0100021680860012084F88C
:1006D000350000BF002084F8340000BFE06B10B18B
:1006E0002046E16B8847606D38B3606D00F0010013
:1006F000F0B1052084F835002068006820F0010082
:100700002168086000BF0098401C0090B84200D9E2
:1007100005E02068006800F001000028F3D100BF68
:10072000012084F8350000BF002084F8340000BFA9
:10073000E06C10B12046E16C884700BFA4E70000E0
:100740000C0000202DE9F0410446002500F0AAF934
:10075000074614B90120BDE8F081606A00B100BF0E
:10076000022084F8350000BF002084F8340000BF68
:100770002068006820F00100216808600AE000F0AD
:1007800091F9C01B052805D920206065032084F855
:100790003500E0E72068006800F001000028EED195
:1007A0002068056821480540D4E901010843E16853
:1007B00008432169084361690843A1690843E16965
:1007C0000843216A08430543606A042803D1D4E939
:1007D0000B0108430543206805602068456925F042
:1007E0000705606A0543606A04280DD1A06A0543C5
:1007F000E06A48B12046FFF7ABFD28B140206065B4
:10080000012084F83500A6E7206845612046FFF7FF
:1008100085FD064694F85C103F208840B0600020BB
:100820006065012084F83500002094E73F8010F0D7
:100830002DE9F04704460D4616461F464FF00008C6
:10084000D4F8589000BF94F83400012802D1022057
:10085000BDE8F087012084F8340000BF94F835002B
:10086000012825D1022084F83500002060653B4630
:10087000324629462046FFF7C0FD94F85C103F2021
:100880008840C9F808002068006840F01600216818
:100890000860206C28B12068006840F008002168DA
:1008A00008602068006840F001002168086006E0E8
:1008B00000BF002084F8340000BF4FF0020840461B
:1008C000C6E7000070B5044600F0ECF80646254681
:1008D000681C10B104480078054400BF00F0E2F83D
:1008E000801BA842FAD370BD08000020F8B503466B
:1008F0000A460025002400200021C1E0012606FA56
:1009000001F5166806EA0504AC4274D1167906F0C2
:100910000306012E04D0167906F00306022E13D129
:1009200098684F000326BE40B0434F00D668BE40D3
:1009300030439860586801268E40B0431679C6F35C
:1009400000168E4030435860167906F00306032ED9
:1009500009D0D8684F000326BE40B0434F009668C8
:10096000BE403043D860167906F00306022E13D13C
:10097000CF0803F1200656F827004E07F70E0F2682
:10098000BE40B0434F07FF0E1669BE403043CF084C
:1009900003F1200646F8270018684F000326BE40E2
:1009A000B043167906F003064F00BE40304318608E
:1009B000566806F44036002E61D000BF002600962F
:1009C000314E366846F480462F4F3E603E463668CC
:1009D00006F48046009600BF00BF2C4E8F0856F8E4
:1009E00027008E07370F0F26BE40B043284EB34274
:1009F00002D1002610E042E0264EB34201D101268A
:100A00000AE0254EB34201D1022605E0234EB3424F
:100A100001D1032600E007268F073F0FBE40304379
:100A20001A4E8F0846F827001D4E3068A0435668BE
:100A300006F4803606B12043194E3060361D30680A
:100A4000A043566806F4003606B12043144E361D06
:100A50003060361D3068A043566806F4801606B133
:100A600020430F4E08363060361D3068A04356686C
:100A700006F4001606B12043094E0C363060491CBE
:100A80001029FFF43BAFF8BD44380240083801405C
:100A9000000002400004024000080240000C024036
:100AA000003C014001480068704700000000002041
:100AB0000348006803490978084401490860704701
:100AC000000000200800002010B50D48006840F428
:100AD00000700B4908600846006840F480600860B8
:100AE0000846006840F480700860032000F0A2F817
:100AF000002000F007F800F02BF8002010BD0000E7
:100B0000003C024070B504460E4800784FF47A71FC
:100B1000B1FBF0F00C490968B1FBF0F5284600F094
:100B200035FC08B1012070BD102C07D200222146EF
:100B3000501E00F041F80548046001E00120F2E792
:100B40000020F0E7080000200C0000200400002036
:100B500008B500BF002000900E48006840F48040B7
:100B60000C4908600846006800F48040009000BF0F
:100B700000BF00BF00200090081F006840F08050B8
:100B8000091F08600846006800F08050009000BF10
:100B900000BF08BD4438024001460846002809DB72
:100BA00000F01F0301229A4043099B0003F1E02358
:100BB000C3F8002100BF70472DE9F05F80460D4665
:100BC0001646002701F08CFA074639462A46334676
:100BD00001F00700C0F1070ABAF1040F02D94FF083
:100BE000040A01E0C0F1070AD14600F1040ABAF193
:100BF000070F02D24FF0000A01E0A0F1030AD44629
:100C00004FF0010A0AFA09FAAAF1010A0AEA020AED
:100C10000AFA0CFA4FF0010B0BFA0CFBABF1010BCB
:100C20000BEA030B4AEA0B042146404601F060FA46
:100C3000BDE8F09F00BF00F00702064B19684FF6B1
:100C4000FF031940044B0B4343EA0221014B196097
:100C500000BF70470CED00E00000FA0570B50446D7
:100C60000D460CB9012070BD5848006800F007001F
:100C7000A84209D255490D700846006800F00700E7
:100C8000A84201D00120EEE7207800F002000228FF
:100C90001DD1207800F00400042805D14C480068DC
:100CA00040F4E0504A490860207800F00800082825
:100CB00005D14748006840F4604045490860444811
:100CC000006820F0F000A1680843414908602078DE
:100CD00000F00100A8B36068012807D13C4808383B
:100CE0000068C0F34040B8B90120BCE76068022842
:100CF00002D06068032807D1354808380068C0F37F
:100D0000406048B90120AEE7314808380068C0F3B8
:100D1000400008B90120A6E72D48006820F0030034
:100D2000616808432A490860FFF7BCFE064609E0EF
:100D3000FFF7B8FE801B41F28831884202D90320B8
:100D400091E707E02248006800F00C006168B0EB12
:100D5000810FEDD11D48006800F00700A84209D9B5
:100D60001A490D700846006800F00700A84201D03B
:100D7000012078E7207800F00400042807D1144807
:100D8000006820F4E050E1680843114908602078C9
:100D900000F00800082808D10D48006820F46040E1
:100DA000216940EAC1000A49086000F03FF808499B
:100DB0000968C1F30311074A515CC840064908603D
:100DC00006480068FFF79EFE00204CE7003C02400A
:100DD00008380240B02100080C0000200400002068
:100DE00001480068704700000C00002000B5FFF7C4
:100DF000F7FF04490968C1F38221034A515CC840E6
:100E000000BD000008380240C021000800B5FFF70F
:100E1000E7FF04490968C1F34231034A515CC84005
:100E200000BD000008380240C02100082DE9F0474D
:100E3000002400250026A1462548006800F00C008B
:100E400020B1042805D008283AD105E0DFF88490C5
:100E500039E0DFF8849036E01D48001F006800F09C
:100E60003F041B48001F006800F4800078B11A4856
:100E70001749091F0968C1F38811A0FB01700146D9
:100E8000224600233846FFF7BBF905460EE011481D
:100E90000F49091F0968C1F38811A0FB01700146C1
:100EA000224600233846FFF7ABF905460848001FE5
:100EB0000068C0F30140401C4600B5FBF6F902E0B3
:100EC000DFF8109000BF00BF4846BDE8F087000083
:100ED000083802400024F400001BB700F8B50446AF
:100EE0000CB90120F8BD207800F00100002874D072
:100EF000F748006800F00C0004280DD0F4480068A2
:100F000000F00C00082813D1F148001F006800F41D
:100F10008000B0F5800F0BD1ED4808380068C0F3B1
:100F20004040002859D06068002856D10120D9E7F8
:100F300000BF6068B0F5803F08D1E5480838006818
:100F400040F48030E249083908601EE06068B0F57E
:100F5000A02F0DD1DE480838006840F48020DC491D
:100F6000083908600846006840F4803008600CE0EA
:100F7000D7480838006820F48030D549083908601F
:100F80000846006820F48020086000BF606890B1C7
:100F9000FFF788FD054606E0FFF784FD401B642847
:100FA00001D903209EE7CA4808380068C0F34040D2
:100FB0000028F1D011E0FFF775FD054606E0FFF7C8
:100FC00071FD401B642801D903208BE7C048083815
:100FD0000068C0F340400028F1D1207800F0020002
:100FE00002285FD1BA48006800F00C0058B1B84838
:100FF000006800F00C0008281CD1B548001F0068EC
:1010000000F48000B0B9B24808380068C0F340006E
:1010100020B1E068012801D0012063E7AC4808381E
:10102000006820F0F800216940EAC100A8490839A9
:10103000086037E0E06800B30120A6490860FFF7C8
:1010400031FD054606E0FFF72DFD401B022801D9C2
:10105000032047E79E4808380068C0F34000002896
:10106000F1D09B480838006820F0F800216940EA78
:10107000C10097490839086014E0002095490860CC
:10108000FFF710FD054606E0FFF70CFD401B0228A8
:1010900001D9032026E78E4808380068C0F34000D5
:1010A0000028F1D1207800F0080008282CD16069D0
:1010B000A8B1012088490860FFF7F4FC054606E066
:1010C000FFF7F0FC401B022801D903200AE7804803
:1010D0006C300068C0F340000028F1D014E000201C
:1010E0007D490860FFF7DEFC054606E0FFF7DAFC05
:1010F000401B022801D90320F4E675486C300068D3
:10110000C0F340000028F1D1207800F0040004284A
:1011100070D100276E483830006800F0805090B9D8
:1011200000BF002000906A483830006840F08050CE
:101130006749383108600846006800F08050009028
:1011400000BF00BF01276548006800F48070B0B997
:101150006248006840F4807060490860FFF7A2FCB4
:10116000054606E0FFF79EFC401B022801D903203C
:10117000B8E65A48006800F480700028F2D000BF3A
:10118000A068012808D152486830006840F001008A
:101190004F49683108601DE0A06805280DD14C4812
:1011A0006830006840F0040049496831086008462A
:1011B000006840F0010008600CE0454868300068B5
:1011C00020F001004249683108600846006820F0BC
:1011D0000400086000BFA068A8B1FFF763FC0546E3
:1011E00009E0FFF75FFC401B41F28831884202D9D9
:1011F000032077E626E0364868300068C0F34000F8
:101200000028EED013E0FFF74DFC054608E0FFF79D
:1012100049FC401B41F28831884201D9032061E634
:101220002B4868300068C0F340000028EFD1012F40
:1012300007D127483830006820F0805024493831E1
:10124000086000BFA069002850D02148006800F065
:101250000C00082860D0A069022848D100201D4950
:101260000866FFF71FFC054606E0FFF71BFC401B66
:10127000022801D9032035E6154808380068C0F374
:1012800040600028F1D1D4E907010843616A40EACF
:1012900081110122A06AC2EB500041EA00412C20DA
:1012A000005D41EA00613020005D41EA00700849BC
:1012B000091F0860012007490866FFF7F3FB054690
:1012C0000EE0FFF7EFFB401B022809D9032009E6D7
:1012D0000838024000004742800E4742007000403C
:1012E00028480068C0F340600028EAD048E00020A9
:1012F00025490866FFF7D6FB054606E0FFF7D2FB57
:10130000401B022801D90320ECE51E480068C0F309
:1013100040600028F2D133E0A069012800D1E1E566
:101320001848001D0668A069012827D006F480012E
:10133000E069814222D106F03F01206A81421DD13D
:1013400047F6C0703040616AB0EB811F16D106F4D9
:1013500040310122A06AC2EB5000B1EB004F0DD129
:1013600006F070612C20005DB1EB006F06D106F035
:10137000E0413020005DB1EB007F01D00120B1E5FC
:101380000020AFE5003802400000474270B5044637
:101390002546681EB0F1807F01D301200FE0681E52
:1013A0004FF0E02148610F214FF0FF3000F0A0FE28
:1013B00000204FF0E021886107200861002070BD07
:1013C000704770472DE9F84F04462068056820688B
:1013D000C668206847694FF00009CA4605F00F0942
:1013E000B9F1000F0AD105F0200038B106F0200055
:1013F00020B1204600F0A0FCBDE8F88FB9F1000F45
:101400007CD007F0010018B906F49070002875D060
:1014100005F0010030B106F4807018B1206C40F086
:101420000100206405F0040030B107F0010018B19C
:10143000206C40F00200206405F0020030B107F09B
:10144000010018B1206C40F00400206405F0080091
:1014500048B106F0200010B907F0010018B1206C67
:1014600040F008002064206C002846D005F02000E1
:1014700028B106F0200010B1204600F05DFC206885
:101480004069C0F3801A206C00F0080010B9BAF16E
:10149000000F2DD0204600F0F6FB2068406900F0D8
:1014A0004000402820D100BF00BF2168143151E81E
:1014B000001F21F040002168143141E80002002A99
:1014C000F3D100BFA06B50B17548A16B0865A06B4C
:1014D000FFF703F888B1A06B016D88470DE0204647
:1014E000FFF76FFF09E009E02046FFF76AFF04E01D
:1014F0002046FFF766FF002020647DE7206B01286F
:1015000076D105F01000002872D006F010000028F7
:10151000FAD000BF0020009020680068009020688A
:101520004068009000BF00BF2068406900F04000A4
:1015300040285ED1A06B006840681FFA80F8B8F1BF
:10154000000F54D0A08D404551DDA4F82E80A06B33
:10155000C069B0F5807F43D000BF00BF21680C3167
:1015600051E8001F21F4807021680C3141E800022D
:10157000002AF3D100BF00BF00BF2168143151E839
:10158000001F21F001002168143141E80002002A07
:10159000F3D100BF00BF00BF2168143151E8001F24
:1015A00021F040002168143141E80002002AF3D103
:1015B00000BF202084F83E000020206300BF00BF51
:1015C00021680C3151E8001F21F0100021680C3116
:1015D00041E80002002AF3D100BFA06BFEF727FF0D
:1015E000A08DE28D801A81B22046FFF7E9FE03E765
:1015F00040E0A08DE18D401A1FFA80F8E08DC0B365
:10160000B8F1000F35D000BF00BF21680C3151E8A0
:10161000001F21F4907021680C3141E80002002A7B
:10162000F3D100BF00BF00BF2168143151E8001F93
:1016300021F001002168143141E80002002AF3D1B1
:1016400000BF202084F83E000020206300BF00BFC0
:1016500021680C3151E8001F21F0100021680C3185
:1016600041E80002002AF3D100BF41462046FFF7BF
:10167000A7FEC1E605F0800030B106F0800018B189
:10168000204600F0EBFCB7E605F0400030B106F074
:10169000400018B1204600F02CFBADE600BFABE6E1
:1016A000BD1B000810B504460CB9012010BDA0698F
:1016B00000B100E000BF94F83D0028B9002084F894
:1016C0003C00204600F028F8242084F83D002068E3
:1016D000C06820F400502168C860204600F0A8FBD4
:1016E0002068006920F49040216808612068406902
:1016F00020F02A00216848612068C06840F400504A
:101700002168C86000202064202084F83D0084F80F
:101710003E000020CAE7000010B586B00446142140
:1017200001A8FEF7A5FD6C492068884276D100BF6C
:10173000002000906948006840F010006749086088
:101740000846006800F01000009000BF00BF00BF16
:101750000020009061481438006840F001005F49A3
:10176000143908600846006800F00100009000BFCE
:1017700000BF4FF4C060019002200290002003904F
:10178000032004900720059001A95548FFF7AEF803
:101790005448554908604FF00060486000215248A5
:1017A0008160C1604FF4806101610021416181610C
:1017B000C16101624162FEF7C5FF08B1FEF734FE68
:1017C00000BF4948A063846300BF4648783047495A
:1017D00008604FF00060486040214448816000216B
:1017E000C1604FF480610161002141618161C1618B
:1017F00001624162FEF7A6FF08B1FEF715FE00BFC9
:101800003A486063846300BF002211462520FFF739
:10181000D3F92520FFF7C0F95CE0FFE734492068E1
:10182000884257D100BF002000902C48001F00685C
:1018300040F400302949091F08600846006800F498
:101840000030009000BF00BF00BF00200090234880
:101850001438006840F00100204914390860084637
:10186000006800F00100009000BF00BF0C20019054
:10187000022002900020039003200490072005908E
:1018800001A91748FFF732F81A481B4908604FF0C2
:10189000006048604021184881600021C1604FF419
:1018A00080610161002141618161C1610162416228
:1018B000FEF748FF08B1FEF7B7FD00BF0E486063B2
:1018C000846300BF002211462620FFF775F9262009
:1018D000FFF762F906B010BD001001404438024025
:1018E000000002404064024098000020F800002000
:1018F00000440040A06002405801002070470000F2
:10190000F7B50446154694F83D00202846D10198C5
:1019100000B10DB90120FEBD00BF94F83C000128C4
:1019200001D10220F7E7012084F83C0000BF0198B4
:101930002062A584E58400202064212084F83D00F5
:101940001748616BC8631748616B08641648616B80
:10195000C8640020616B086501AE23681A1D3168F8
:101960002B46606BFEF764FF6FF040002168086053
:1019700000BF002084F83C0000BF00BF00BF21680A
:10198000143151E8001F41F080002168143141E812
:101990000002002AF3D100BF0020BCE70220BAE712
:1019A000211C0008791C0008D11B000870477047F3
:1019B00000BFFEE708B500BF002000901A4800688D
:1019C00040F40010184908600846006800F4001050
:1019D000009000BF00BF00BF0020009008460068D4
:1019E00040F4800008600846006800F48000009021
:1019F00000BF00BF002211461120FFF7DDF81120C3
:101A0000FFF7CAF8002211463A20FFF7D5F83A202E
:101A1000FFF7C2F8002211464620FFF7CDF8462016
:101A2000FFF7BAF808BD00003038024008B500BF23
:101A3000002000900E48006840F080000C490860CB
:101A40000846006800F08000009000BF00BF00BFA3
:101A5000002000900846006840F001000860084639
:101A6000006800F00100009000BF00BF08BD00004A
:101A70003038024010B50B480B4908604FF4E13094
:101A80004860002108488160C16001610C2141610A
:101A900000218161C161FFF705FE08B1FEF7C4FCBA
:101AA00010BD0000001001401000002010B50B48D0
:101AB0000B4908604FF4E13048600021084881601C
:101AC000C16001610C21416100218161C161FFF7A9
:101AD000E9FD08B1FEF7A8FC10BD0000004400407D
:101AE0005400002000BFFEE700BFFEE770477047CC
:101AF00010B5FEF7DDFF10BD00B593B0342106A888
:101B0000FEF7B6FB142101A8FEF7B2FB00BF0020D0
:101B100000902348006840F0805021490860084642
:101B2000006800F08050009000BF00BF00BF0020A0
:101B300000901C48006840F440401A49086008467C
:101B4000006800F44040009000BF00BF01200690F4
:101B50000004079002200C9041050D9106210E9182
:101B600064210F91022110911191129106A8FFF7A3
:101B7000B5F908B1FEF758FC0F2001900220029041
:101B8000002003904FF48050049000200590032122
:101B900001A8FFF763F808B1FEF746FC13B000BDDB
:101BA00040380240007000400348006840F4700074
:101BB000014908607047000088ED00E070B50546F7
:101BC000AC6B0020E085E0842046FFF7FAFB70BD97
:101BD00070B506460025B46B20684069C0F3C01597
:101BE00094F83D00212805D125B10020E08420464D
:101BF00000F08FF820684069C0F3801594F83E002B
:101C0000222805D125B10020E085204600F03BF8D0
:101C1000206C40F0100020642046FFF7D2FB70BD1E
:101C200070B50546AC6B2868006800F48070F8B9A0
:101C30000020E08400BF00BF2168143151E8001F7C
:101C400021F080002168143141E80002002AF3D11C
:101C500000BF00BF00BF21680C3151E8001F41F0F8
:101C6000400021680C3141E80002002AF3D102E073
:101C70002046FFF79BFE70BD70B50446A56B284655
:101C8000FFF795FE70BD00BF00BF02680C3252E83E
:101C9000002F22F4907102680C3242E80013002BEE
:101CA000F3D100BF00BF00BF0268143252E8002F1A
:101CB00022F001010268143242E80013002BF3D134
:101CC00000BF016B01290ED100BF00BF02680C32BA
:101CD00052E8002F22F0100102680C3242E8001393
:101CE000002BF3D100BF202180F83E1000210163BA
:101CF000704710B504462068C06820F04000216895
:101D0000C860202084F83D002046FFF74FFE0020E9
:101D100010BD00BF00BF02680C3252E8002F22F055
:101D2000C00102680C3242E80013002BF3D100BF5F
:101D3000202180F83D107047F8B5044694F83E0025
:101D4000222873D1A068B0F5805F0CD1206950B90A
:101D50000025A66A20684068C0F308003080A06AA9
:101D6000801CA06215E0A56A0026A068B0F5805F1F
:101D700003D0A06828B9206918B920684068287085
:101D800004E02068406800F07F002870A06A401CD2
:101D9000A062E08D401E80B2E085002844D120681A
:101DA000C06820F020002168C8602068C06820F466
:101DB00080702168C8602068406920F001002168B7
:101DC0004861202084F83E00206B012826D10020A5
:101DD000206300BF00BF21680C3151E8001F21F0D3
:101DE000100021680C3141E80002002AF3D100BF45
:101DF0002068006800F0100010280AD100BF002001
:101E0000009020680068009020684068009000BF43
:101E100000BFA18D2046FFF7D3FA02E02046FFF76E
:101E20006DFD0020F8BD01E00020FBE70220F9E78E
:101E30002DE9F84F04462068006920F44050E1681D
:101E40000843216808612169A06808436169084363
:101E5000E169084300902068C06849F20C6188433A
:101E6000009908432168C8602068406920F44070E8
:101E7000A16908432168486176492068884203D0F7
:101E800075492068884203D1FEF7C0FF814602E011
:101E9000FEF7ACFF8146E069B0F5004F6CD102203F
:101EA0006168A0FB015003461920A9FB00700146A0
:101EB0002A463846FEF7A4F96421B0FBF1F04FEA58
:101EC000001A02206168A0FB01510B461920A9FBF2
:101ED00000712A463846FEF793F98346022061686E
:101EE000A0FB015003461920A9FB00712A46384681
:101EF000FEF786F96421B0FBF1F000EBC00101EBC5
:101F00000010ABEB8000322101EBC0006421B0FB7C
:101F1000F1F000F0F8000AEB400A02206168A0FB33
:101F2000015003461920A9FB007001462A46384695
:101F3000FEF766F9834602206168A0FB0150034664
:101F40001920A9FB00712A463846FEF759F9642189
:101F5000B0FBF1F000EBC00101EB0010ABEB800037
:101F6000322101EBC0006421B0FBF1F000F007006A
:101F70005044216888606AE004206168A0FB015039
:101F800003461920A9FB007001462A463846FEF791
:101F900037F9824604206168A0FB015003461920EE
:101FA000A9FB007001462A463846FEF729F964214C
:101FB000B0FBF1F000EBC00101EB0010AAEB8000D8
:101FC000322101EB00106421B0FBF1F000F0F00AC7
:101FD00004206168A0FB017003461920A9FB005191
:101FE0003A462846FEF70CF96421B0FBF1F00AEB03
:101FF000001A04206168A0FB01510B461920A9FBBF
:1020000000712A463846FEF7FBF8834604206168D3
:10201000A0FB015003461920A9FB007001462A4687
:102020003846FEF7EDF86421B0FBF1F000EBC0019B
:1020300001EB0010ABEB8000322101EB00106421BA
:10204000B0FBF1F000F00F00504421688860BDE85B
:10205000F88F00000010014000140140014691F883
:102060003D00212828D18868B0F5805F0BD1086930
:1020700048B90A6A1088C0F308000B685860086AFB
:10208000801C086205E00B6A581C086218780B680F
:102090005860C88C401E80B2C88458B90868C068AF
:1020A00020F080000B68D8600868C06840F04000ED
:1020B0000B68D860002070470220FCE710B502488A
:1020C000FFF780F910BD00001000002010B5024895
:1020D000FFF778F910BD00005400002000BFFEE7B4
:1020E00002480068C0F30220704700000CED00E0D9
:1020F00010B5002804DB0A07130E054A135406E046
:102100000A07140E034A00F00F031B1FD45410BD1E
:1021100000E400E018ED00E002E008C8121F08C16A
:10212000002AFAD170477047002001E001C1121F58
:10213000002AFBD1704700001FB515A30FCB8DE817
:102140000F00FEF7C1FCFFF7D7FCFFF76FFCFFF7AE
:1021500031FCFFF7ABFCFFF78DFC0E2269461048FF
:10216000FFF7CEFB0E2269460E48FFF7C9FB0DE0D4
:102170004FF47A70FEF7A6FB0E2269460848FFF777
:10218000BFFB0E2269460748FFF7BAFBF0E70000E5
:1021900048656C6C6F20576F726C640D0A0000000C
:1021A0005400002010000020000610160006101633
:1021B00000000000000000000102030406070809F7
:1021C0000000000001020304E821000800000020D4
:1021D0001000000018210008F8210008100000205D
:1021E000A8050000282100080000000010000000E1
:0821F000010000000024F400CE
:04000005080001C529
:00000001FF
